:020000041010DA
:101000007370043097F1EF0F9381C1451701F00F12
:10101000130141FF1745000013058530938501BA80
:10102000138681C063FAC5008322050023A0550002
:1010300011059105E3EAC5FE138581C0938581C141
:101040006377B500232005001105E36DB5FEEF20A1
:0E105000000D0145814529206F30901B01A045
:101060005111B70701E006C40547D8CF03A70720F1
:101070008945371501401367070823A0E720EF30A3
:10108000C0313715014005469145EF300021B922A6
:10109000612A174500001305E5CDEF10D06817450C
:1010A00000001305A5CEEF101068174500001305CA
:1010B000A5D2EF10506717450000130565D4EF1057
:1010C0009066174500001305A5D6EF10D0651745AB
:1010D00000001305E5D8EF10106517450000130553
:1010E00025DBEF10506417450000130565DDEF1098
:1010F0009063174500001305A5DFEF10D062174578
:1011000000001305E5E1EF1010621745000013051C
:1011100025E4EF10506117450000130565E6EF1058
:101120009060174500001305A5E8EF10D05F174544
:1011300000001305E5EAEF10105F174500001305E6
:1011400025EDEF10505E17450000130565EFEF1019
:10115000905DA38701C083C7F1C0F5DF371501405B
:10116000EF3060292384A1C0B147AA8563E1A706B7
:10117000174700001307079393152500BA959C4164
:10118000BA978287D12C21BF7D2111BFEF00E06883
:1011900039B7EF00D00721B7EF00F02509B7EF000E
:1011A0005044F5BDEF00B06BDDBDEF10800FC5BD45
:1011B000EF10A021EDB5EF10A03FD5B5EF10E04E38
:1011C000F9BDEF10C06AE1BDEF10D008C9BD1745E9
:1011D00000001305E5E9EF101055D1B50111854563
:1011E0001305000606CEEF20E0472800EF20803EE2
:1011F000C245B7470F0093870724B3D5F5020145D1
:10120000C205C181EF20C0358A853705014002C083
:1012100023020100EF20C050854537050140EF2033
:10122000205AF24005618280011185451305004076
:1012300006CEEF202043B73703003EC085473EC2AD
:101240003EC40A85C1673EC802C6EF20600037353C
:101250000300EF20402CF24005618280B707014077
:101260009847B70701409C47B307F74063E3A700DF
:1012700082800100FDB7511191453715014006C428
:1012800022C2EF30600A85476314F502A387A1C02C
:1012900089452A8437150140EF3020103715014069
:1012A000EF3060159307C00C6314F502238781C0EB
:1012B000894537150140EF30200785476315F50252
:1012C0001244A24085453715014031016F30E00CD2
:1012D00037150140EF3020129307600EE31AF5FC3A
:1012E000A38481C0F1B7A240124431018280511120
:1012F000094506C422C2EF20705E85476316F502D9
:10130000B727014003A7C74389662A84358F23AED8
:10131000E742EF203048EF205066EF20D0640945C7
:10132000A38681C0EF2030600545EF20305B854704
:101330006312F504B727014003A7C743C1660145FF
:10134000358F23AEE742EF20F0440145EF2090486F
:1013500083C7D1C091CB0545A38601C0EF2090473C
:10136000EF20B061EF20D0601244A240054531016A
:101370006F20705BA24012443101828051110945F7
:1013800006C4EF20B05585476311F502B727014029
:1013900003A7C7438966358F23AEE7422385A1C0E3
:1013A000A385A1C00945EF2010580545EF20105333
:1013B0008547631EF500B727014003A7C743C166F1
:1013C000A240358F23AEE74231016F20D055A240B5
:1013D000310182805111094506C4EF203050854704
:1013E0006314F502B727014003A7C74389661305B5
:1013F0005005358F23AEE742EF20F0560545EF202C
:1014000070390945EF2030520545EF20304D8547B2
:101410006312F502B727014003A7C743C166014520
:10142000358F23AEE742EF20F036A240054531016B
:101430006F20704FA2403101828083C781C0214755
:101440006389E70031476387E7001D476395E7003D
:1014500079BD2DB741B78280130141FC17350000DB
:101460001305856706DC22DAEF10F02B370528001C
:10147000854513050540EF20E01E0545EF10905708
:10148000B7070400370400010A853EC002C202C447
:1014900002C622C8EF10D05BB70708000A853EC01D
:1014A00002C202C402C622C8EF10905AEF20403B8D
:1014B000930710103ECAB70786019387270D3ECCCD
:1014C000B7079E079387A7413ECEB7070E019387C4
:1014D000A7053ED0B7078403938747293ED2B707B5
:1014E00074049387473848083ED402D6EF20C037AB
:1014F000416605457D168145EF2030150545EF20F5
:10150000302583C7E1C091CB238701C0EF20403550
:10151000E25052541301C103828037051000EF20BE
:10152000303685476312F502F3770430B727014060
:1015300003A7C743856637051000358F23AEE74202
:10154000EF20703EF36704300945EF207033854784
:101550006311F502F3770430B727014003A7C743AF
:1015600089660945358F23AEE742EF20D03BF3670C
:1015700004300545EF20D03085476318F502F37736
:101580000430372401408327C443C166B58F232E1E
:10159000F442EF205039F36704308325C4851735B2
:1015A00000001305E555EF10101813050002EF2099
:1015B000302D85476313F502F3770430B7270140D8
:1015C00003A7C743B706020013050002358F23AEF9
:1015D000E742EF205035F367043013050004EF2095
:1015E000302A85476313F502F3770430B7270140AB
:1015F00003A7C743B706020013050004358F23AEC7
:10160000E742EF205032F367043013050008EF2063
:1016100030278547631FF500F3770430B727014073
:1016200003A7C743B7060200358F23AEE742F3672F
:1016300004300100F9B5130141FC17350000130512
:10164000A54C06DC22DAEF10100E37052800854580
:1016500013050540EF2000010545EF10B039B7072D
:101660000400370400010A853EC002C202C402C65B
:1016700022C8EF10F03DB70708000A853EC002C23D
:1016800002C402C622C8EF10B03CEF20601D9307D1
:1016900010103ECAB70786019387270D3ECCB707C7
:1016A0009E079387A7413ECEB7070E019387A705F4
:1016B0003ED0B7078403938747293ED2B707740407
:1016C0009387473848083ED402D6EF20E019416698
:1016D0007D1681450545EF2040770545EF20100335
:1016E0000545EF20F00683C7E1C091CB238701C0F9
:1016F000EF200017E25052541301C10382803705D6
:101700001000EF20F01785476312F502F3770430DD
:10171000B727014003A7C743856637051000358FFB
:1017200023AEE742EF203020F36704300945EF2075
:10173000301585476311F502F3770430B727014070
:1017400003A7C74389660945358F23AEE742EF20DB
:10175000901DF36704300545EF209012854763180C
:10176000F502F3770430372401408327C443C16670
:10177000B58F232EF442EF20101BF367043083252E
:10178000C485173500001305A537EF10C079130580
:101790000002EF20F00E85476313F502F377043063
:1017A000B727014003A7C743B7060200130500028D
:1017B000358F23AEE742EF201017F367043013058F
:1017C0000004EF20F00B85476313F502F377043034
:1017D000B727014003A7C743B7060200130500045B
:1017E000358F23AEE742EF201014F3670430130562
:1017F0000008EF20F0088547631FF500F3770430F9
:10180000B727014003A7C743B7060200358F23AEB1
:10181000E742F36704300100F9B5130141FC1735C5
:1018200000001305253906DC22DAEF10C06F3705FA
:101830002800854513050540EF10D0620545EF10DF
:10184000701BB7070400370400010A853EC022C898
:1018500002C202C402C6EF10B01FB70708000A8513
:101860003EC022C802C202C402C6EF10701EEF10B2
:10187000307F930710103ECAB70786019387270D64
:101880003ECCB7079E079387A7413ECEB7070E0110
:101890009387A7053ED0B7078403938747293ED295
:1018A000B70774049387473848083ED402D60544E6
:1018B000EF10907B4166A2851375F40F4116050465
:1018C000EF20A05842044180B147E315F4FE0545DE
:1018D000EF20C0630545EF20A06783C7E1C091CB2F
:1018E000238701C0EF10D077E25052541301C10397
:1018F000828037051000EF20A07885476312F5023B
:10190000F3770430B727014003A7C743856637053F
:101910001000358F23AEE742EF20F000F36704306C
:101920000945EF20E07585476311F502F377043030
:10193000B727014003A7C74389660945358F23AE02
:10194000E742EF20407EF36704300545EF20407307
:1019500085476318F502F377043037240140832765
:10196000C443C166B58F232EF442EF20C07BF367DA
:1019700004308325C4851735000013056518EF1062
:10198000805A13050002EF20A06F85476313F5020C
:10199000F3770430B727014003A7C743B706020017
:1019A00013050002358F23AEE742EF20C077F367BF
:1019B000043013050004EF20A06C85476313F50283
:1019C000F3770430B727014003A7C743B7060200E7
:1019D00013050004358F23AEE742EF20C074F36790
:1019E000043013050008EF20A0698547631FF50048
:1019F000F3770430B727014003A7C743B7060200B7
:101A0000358F23AEE742F36704300100F9B51301C7
:101A100041FC173500001305A51C06DC22DAEF1087
:101A2000805037052800854513050540EF10904389
:101A30000545EF10207CB7070400370400010A8534
:101A40003EC002C202C402C622C8EF107000B7072F
:101A500008000A853EC002C202C402C622C8EF10B6
:101A6000207FEF10F05FB7070002938717103ECA80
:101A7000B70786019387270D3ECCB7079E0793874C
:101A8000A7413ECEB7070E019387A7053ED0B70703
:101A90008403938747293ED2B70774049387473856
:101AA00048083ED402D6EF10305C41667D16814571
:101AB0000545EF2080390545EF2040450545EF20DD
:101AC000204983C7E1C091CB238701C0EF10505953
:101AD000E25052541301C103828037051000EF20F9
:101AE000205A85476312F502F3770430B727014087
:101AF00003A7C743856637051000358F23AEE7423D
:101B0000EF206062F36704300945EF206057854796
:101B10006311F502F3770430B727014003A7C743E9
:101B200089660945358F23AEE742EF20C05FF36732
:101B300004300545EF20C05485476318F502F3775C
:101B40000430372401408327C443C166B58F232E58
:101B5000F442EF20405DF36704308325C4851735D8
:101B600000001305E5F9EF10003C13050002EF201B
:101B7000205185476313F502F3770430B7270140FE
:101B800003A7C743B706020013050002358F23AE33
:101B9000E742EF204059F367043013050004EF20BB
:101BA000204E85476313F502F3770430B7270140D1
:101BB00003A7C743B706020013050004358F23AE01
:101BC000E742EF204056F367043013050008EF208A
:101BD000204B8547631FF500F3770430B72701409A
:101BE00003A7C743B7060200358F23AEE742F3676A
:101BF00004300100F9B5130141FC1735000013054D
:101C0000650106DC22DAEF10003237052800854531
:101C100013050540EF1010250545EF10A05DB7072F
:101C20000400370400010A853EC002C202C402C695
:101C300022C8EF10E061B70708000A853EC002C263
:101C400002C402C622C8EF10A060EF1070419307D3
:101C500010103ECAB70786019387270D3ECCB70701
:101C60009E079387A7413ECEB7070E019387A7052E
:101C70003ED0B7078403938747293ED2B707740441
:101C80009387473848083ED402D6EF10F03D4166AE
:101C90007D1681450545EF20401B13054038EF2098
:101CA00080120545EF2080260545EF20602A83C776
:101CB000E1C091CB238701C0EF10903AE25052541B
:101CC0001301C103828037051000EF20603B854778
:101CD0006312F502F3770430B727014003A7C74327
:101CE000856637051000358F23AEE742EF20A0430D
:101CF000F36704300945EF20A03885476311F502EA
:101D0000F3770430B727014003A7C7438966094525
:101D1000358F23AEE742EF200041F36704300545DD
:101D2000EF20003685476318F502F3770430372437
:101D300001408327C443C166B58F232EF442EF20B0
:101D4000803EF36704308325C485173500001305F2
:101D500025DBEF10401D13050002EF2060328547A0
:101D60006313F502F3770430B727014003A7C74395
:101D7000B706020013050002358F23AEE742EF20BD
:101D8000803AF367043013050004EF20602F854785
:101D90006313F502F3770430B727014003A7C74365
:101DA000B706020013050004358F23AEE742EF208B
:101DB0008037F367043013050008EF20602C854757
:101DC000631FF500F3770430B727014003A7C7432B
:101DD000B7060200358F23AEE742F36704300100F7
:101DE000F9B5130141FC173500001305A5E506DC24
:101DF00022DAEF104013370528008545130505400A
:101E0000EF1050060545EF10E03EB7070400370419
:101E100000010A853EC002C202C402C622C8EF10F9
:101E20002043B70708000A853EC002C202C402C6AA
:101E300022C8EF10E041EF10B022930710103ECA05
:101E4000B70786019387270D3ECCB7079E07938778
:101E5000A7413ECEB7070E019387A7053ED0B7072F
:101E60008403938747293ED2B70774049387473882
:101E700048083ED402D6EF10301F41667D168145DA
:101E80000545EF10907C13058025EF10F077054590
:101E9000EF20C0070545EF20A00B83C7E1C091CB21
:101EA000238701C0EF10D01BE25052541301C1032D
:101EB000828037051000EF20A01C85476312F502D1
:101EC000F3770430B727014003A7C743856637057A
:101ED0001000358F23AEE742EF20E024F367043093
:101EE0000945EF20E01985476311F502F3770430C7
:101EF000B727014003A7C74389660945358F23AE3D
:101F0000E742EF204022F36704300545EF204017F9
:101F100085476318F502F37704303724014083279F
:101F2000C443C166B58F232EF442EF20C01FF36770
:101F300004308325C48517350000130565BCEF0008
:101F4000907E13050002EF20A01385476313F5026E
:101F5000F3770430B727014003A7C743B706020051
:101F600013050002358F23AEE742EF20C01BF36755
:101F7000043013050004EF20A01085476313F50219
:101F8000F3770430B727014003A7C743B706020021
:101F900013050004358F23AEE742EF20C018F36726
:101FA000043013050008EF20A00D8547631FF500DE
:101FB000F3770430B727014003A7C743B7060200F1
:101FC000358F23AEE742F36704300100F9B55111B4
:101FD000173500001305C5D406C422C226C0EF0081
:101FE0009074A38701C083C7F1C0F5DF37150140A6
:101FF000EF206040AA8417350000130525D4EF00B8
:102000009072A38701C09387F1C083C7070093F73D
:10201000F70FF5DB37150140EF20E03D2A842A86D3
:10202000A68517350000130525D3EF00D06FB7271D
:10203000014003A7078093860780A240419B23A00D
:10204000E78003A70780D98C23A09780B7B7040047
:102050005D8CC0CEC0CE1244824431018280130117
:1020600041FC17350000130525C106DC22DAEF001C
:10207000906B37052800854513050540EF10805EFD
:102080000545EF102017B7070400370400010A8543
:102090003EC002C202C402C622C8EF10601BB707CE
:1020A00008000A853EC002C202C402C622C8EF1060
:1020B000201AEF10E07A930710103ECAB707860186
:1020C0009387270D3ECCB7079E079387A7413ECE47
:1020D000B7070E019387A7053ED0B7078403938700
:1020E00047293ED2B7077404938747383ED448083F
:1020F000B70796003ED6EF10207741667D16A945BA
:102100000545EF1090540545EF1050580545EF1068
:1021100070680545EF10106C0545EF10305F054500
:10212000EF10905A0545EF10B06283C7E1C091CB24
:10213000238701C0EF10C072E25052541301C10353
:10214000828083C791C081C7A38401C04935370508
:102150001000EF10F07285476312F502F377043038
:10216000B727014003A7C743856637051000358FA1
:1021700023AEE742EF10307BF36704300945EF10E0
:10218000307085476315F502F3770430B7270140B7
:1021900003A7C74389660945358F23AEE742EF1091
:1021A0009078F3670430EF10507DEF10D07B054539
:1021B000EF10106D85472A84631CF502F377043015
:1021C000B727014003A7C743C166358F23AEE74257
:1021D000EF1070752145EF10B06A63158500214539
:1021E000EF107074F3670430EF103079EF1050780F
:1021F00013050002EF10D06885476313F502F377EB
:102200000430B727014003A7C743B70602001305F0
:102210000002358F23AEE742EF10F070F367043011
:1022200013050004EF10D06585476313F502F377BB
:102230000430B727014003A7C743B70602001305C0
:102240000004358F23AEE742EF10F06DF3670430E2
:1022500013050008EF10D0628547631FF500F37780
:102260000430B727014003A7C743B7060200358FE4
:1022700023AEE742F36704302145EF1070608547D5
:10228000631FF500F3770430B727014003A7C74366
:10229000B7060200358F23AEE742F3670430010032
:1022A00069B5130141FC173500001305659F06DC75
:1022B00022DAEF0050473705280085451305054011
:1022C000EF10403A0545EF00F072B70704003704FD
:1022D00000010A853EC022C802C202C402C6EF0045
:1022E0003077B70708000A853EC022C802C24164A1
:1022F00002C402C6EF00D075EF1080569307141089
:102300003ECAB70786019387270D3ECCB7079E07C5
:102310009387A7413ECEB7070E019387A7053ED00E
:10232000B7078403938747293ED2B707740493877E
:1023300047383ED44808B70796003ED6EF10C05243
:102340001306E4FF81450945EF1030300545EF10D5
:10235000F0330545EF10903BB70701E00547D8DFA4
:1023600003A70720A1660D45558F23A0E720EF1096
:10237000905B0D458545EF10F0490545EF10503D48
:1023800083C7E1C091CB238701C0EF10604DE250BD
:1023900052541301C103828037051000EF10504ED4
:1023A00085476312F502F3770430B727014003A78E
:1023B000C743856637051000358F23AEE742EF101F
:1023C0009056F3670430010065BF130141FC1735D7
:1023D00000001305258F06DC22DA26D8EF00B03482
:1023E00037052800854513050540EF10A027054552
:1023F000EF005060B7070400370400010A853EC0B3
:1024000002C202C402C622C8EF009064B7070800E7
:102410000A853EC002C202C402C622C8EF00506351
:10242000EF100044930710103ECAB7078601938748
:10243000270D3ECCB7079E079387A7413ECEB7072F
:102440000E019387A7053ED0B707840393874729DA
:102450003ED2B7077404938747383ED44808B7077D
:1024600096003ED6EF104040416671168145054505
:10247000EF10B01D0545EF107029B70701E00547C3
:10248000D8DF03A70720A1660D45558F23A0E720BD
:10249000EF10704985450D45EF10D0370145EF101D
:1024A000F01E0545EF10D02A83C7E1C099CB2387E2
:1024B00001C0EF10E03AE2505254C2541301C1037C
:1024C000828037051000EF10B03B85476311F50897
:1024D000F3770430B727014003A7C7438566370564
:1024E0001000358F23AEE742EF10F043F36704305E
:1024F00083C7B1C0A9CF0545A38501C0EF109029BE
:10250000EF10B047AA8449441145EF107037854752
:10251000E30CF5FE5145EFE07FD49397E40063DCD4
:1025200007000545EF1030441305A00FEFE01FD35F
:102530000145EF1050431145EF1090346DDD7D14CF
:102540001374F40F860469F00145EF10B02483C7BB
:10255000A1C0A9CF0545238501C0EF10B023EF101E
:10256000D041AA8449441145EF1090318547E30CCE
:10257000F5FE5145EFE09FCE9397E40063DC070042
:102580000545EF10503E1305A00FEFE03FCD01458C
:10259000EF10703D1145EF10B02E6DDD7D141374FA
:1025A000F40F860469F00145EF10D01E0100EDBD67
:1025B000130141FC172500001305C57306DC22DA60
:1025C000EF00701637052800854513050540EF100C
:1025D00060090545EF001042B70704003704000109
:1025E0000A853EC022C802C202C402C6EF0050469D
:1025F000B70708000A853EC022C802C202C402C64C
:10260000EF001045EF10C025930710103ECAB70722
:1026100086019387270D3ECCB7079E079387A74176
:102620003ECEB7070E019387A7053ED0B7078403B8
:10263000938747293ED2B7077404938747383ED41F
:102640004808B70796003ED6EF1000220545EF1068
:102650007014014483C7E1C091CB238701C0EF1000
:102660002020E25052541301C10382801145EF1023
:10267000302185476316F5020565EF00706519EC9A
:102680005145EFE0BFBD0545EF10F02D1305A00F3C
:10269000EFE0DFBC0145EF10102D054401005DBFE8
:1026A0000565EF0050670144D5BF130141FD1725B3
:1026B00000001305254806D422D2EF00D0063705C6
:1026C0002800854513050540EF00D0790545EF004A
:1026D0007032B70704003704000168003EC622CEFE
:1026E00002C802CA02CCEF00B036B7070800680083
:1026F0003EC622CE02C802CA02CCEF007035EF10EF
:102700002016B707000A3EC28D679D070A8505049B
:102710002314F10022C0EF10A04B41667D168145C5
:102720000545EF1080720545EF10D0060545EF1006
:10273000300283C7E1C091CB238701C0EF10401264
:10274000A25012541301C102828037051000EF100D
:10275000301385476312F502F3770430B727014041
:1027600003A7C743856637051000358F23AEE742C0
:10277000EF10701BF36704300945EF1070108547A8
:102780006315F502F3770430B727014003A7C74369
:1027900089660945358F23AEE742EF10D018F367FD
:1027A000043013055005EF10101C0545EF10500DB7
:1027B00085476318F502F3770430372401408327F7
:1027C000C443C166B58F232EF442EF10D015F367D2
:1027D00004308325C4851725000013056532EF00FA
:1027E000807413050002EF10B00985476313F502EA
:1027F000F3770430B727014003A7C743B7060200A9
:1028000013050002358F23AEE742EF10D011F367B6
:10281000043013050004EF10B00685476313F5027A
:10282000F3770430B727014003A7C743B706020078
:1028300013050004358F23AEE742EF10D00EF36787
:10284000043013050008EF10B0038547631FF5003F
:10285000F3770430B727014003A7C743B706020048
:10286000358F23AEE742F36704300100D9B5130179
:1028700041FD172500001305A52E06D422D226D02F
:102880005D2537052800854513050540EF00905D5F
:102890000545EF003016B707040037040001680053
:1028A0003EC602C802CA02CC22CEEF00701AB70799
:1028B000080068003EC602C802CA02CC22CEEF0061
:1028C0003019EF00F07985473EC0B707030A9387B8
:1028D00017103EC28D679D070A852314F100EF1083
:1028E000202F41667D1681450545EF1000560545B0
:1028F000EF10406A0545EF10A06583C7E1C099CB92
:10290000238701C0EF00D075A250125482541301E6
:10291000C102828037051000EF1080768547631270
:10292000F502F3770430B727014003A7C743856654
:1029300037051000358F23AEE742EF10C07EF367F6
:1029400004300945EF10C07385476315F502F3772E
:102950000430B727014003A7C74389660945358F6F
:1029600023AEE742EF10207CF367043013055005D7
:10297000EF10607F0545EF10A0708547AA846312B1
:10298000F504F3770430372401408327C443C1663C
:10299000B58F232EF442EF100079F36704308325BE
:1029A000C485172500001305A51513040480A52B65
:1029B00083C7C1C0C9EF238691C03C5493C7270089
:1029C0003CD413050002EF10A06B85476313F5029A
:1029D000F3770430B727014003A7C743B7060200C7
:1029E00013050002358F23AEE742EF10C073F36783
:1029F000043013050004EF10A06885476313F50247
:102A0000F3770430B727014003A7C743B706020096
:102A100013050004358F23AEE742EF10C070F36753
:102A2000043013050008EF10A0658547631FF5000B
:102A3000F3770430B727014003A7C743B706020066
:102A4000358F23AEE742F367043001007DB523865E
:102A500001C085BF130141FD1725000013050513B3
:102A600006D422D2C9213705280085451305054023
:102A7000EF00503F0545EF00E077B707040037044B
:102A8000000168003EC622CE02C802CA02CCEF0096
:102A9000207CB707080068003EC622CE02C802CAE2
:102AA00002CCEF00E07AEF00B05BB707030A938730
:102AB00017103EC28D679D0705440A852314F10057
:102AC00022C0EF10E0104166791681450945EF10EC
:102AD000C0370545EF10004CB70701E0C0DF03A782
:102AE0000720A1660D45558F23A0E720EF10A063B6
:102AF0000D458545EF1000520545EF10604583C731
:102B0000E1C091CB238701C0EF009055A250125431
:102B10001301C1028280B727014093860780B85A0B
:102B20001316B700635F06007377043003A7C7432B
:102B30000566318F23AEE742B7071000BCDAF367B2
:102B4000043001006DBF01A07D1513352500828082
:102B50009C412380A7009C4185079CC18280130172
:102B600081F622C926C706CBAE842AC06C00014478
:102B70003375D6020504910523AEA5FE636ED6001B
:102B80003356D602F5B73E853EC28247A6853AC483
:102B90008297224792477D17E347E4FE7D14FD5755
:102BA0006318F400DA404A44BA4413018109828070
:102BB000780093172400BA97884325479307700538
:102BC0006364A700930700033E958247A68582971A
:102BD000F1B741112AC005468A85054506C6EF10A2
:102BE000106885476316F5000245B24041018280B6
:102BF0007D55E5BF130141FBA2C2A6C086C4AA84CD
:102C00002E8432C0824703C5070093075002631A1F
:102C1000F50482477D537D579382170016869307EC
:102C2000000293051600034606002EC093053006E9
:102C3000630CB61463EDC5089305D002630DB602AC
:102C400063E2C504930550026304B62C9305A00209
:102C50006304B612930530026301B60236C216C091
:102C60004DAC36C2630B052A8247A28585073EC05C
:102C70008294924641BF9307D00202465DB7930704
:102C80000003E5BF93050003E30BB6FE63EAC5004E
:102C90009305E002E314B6FCE35107FE0147F1BFE0
:102CA00093059003E3ECC5FA0143A9453303B3024E
:102CB00082452545850532930246130303FD03062D
:102CC0000600930306FD636C750A2EC0F9BF9305D9
:102CD000F006630BB62263E7C50493056006630B39
:102CE000B60A9305C006E30AB6F893054006E31753
:102CF000B6F61386460032C29042A945635F0600CD
:102D0000A2851305D00232C83EC63AC48294424618
:102D1000A9453306C0402247B247AE862685A28524
:102D20003D3D81BF93053007630AB61263E8C502D3
:102D300093050007E314B6F2A2851305000336C21B
:102D40003EC63AC48294A2851305800782949246B7
:102D5000C145938746003EC2904275BF9305500718
:102D60006306B61A13058007C145E319A6EE13865C
:102D7000460032C2904255B703A306009106E35EB7
:102D800007EE1A877D53D5BD938746003EC2A285C4
:102D90008842F9BD938786003EC2DC42904263DEE2
:102DA0000700A2851305D0023EC832C61AC4829419
:102DB000C24732462243860785830147B280BE83DD
:102DC000634C670693020102BE8532851AC416CE93
:102DD000EF10D0362A8681470147A9466C081705AF
:102DE0000000130525D7EFF09FD72243930201027D
:102DF000635960028147724793C6F7FFBA9683868C
:102E000006001D8F85072300D700E316F3FE7246E8
:102E10009307E002330366402300F300F24785077F
:102E20003ECEF247E3F7F2E403850200A28516C422
:102E30008294A2428502F5B79727000093878727DF
:102E40009043D443050706859E851AC63AC4EF1001
:102E5000E05D2A86AE87324322478DB7138646004F
:102E6000944232C289E69726000093862625635B4A
:102E7000E0021306D0026387C7029A8536853ECAF0
:102E80003AC81AC636C4EF10D03B4247A246324376
:102E9000D247098F3A866349C000BA876353070057
:102EA00081471D8F36861DA83E85A2853ACC1ACA59
:102EB00032C836C63EC482944246624752437D16AB
:102EC000B246A247C9BFA2851ACA3AC832C636C49A
:102ED00082943246A2464247524305060305060045
:102EE000B387E600918F19C5E34F03FC7D13FD55B1
:102EF000E31BB3FCE35FF0D6A285130500023EC4DA
:102F00008294A247FD17FDB7A14595B5A94585B5A2
:102F100036C2A28513055002A1BBA64016448644C2
:102F20001301C10482801301C1FD2EC832CA36CC00
:102F30002A861408170500001305E5C9814506C651
:102F40003ACE3ED036C0EFF0FFCAB2400145130181
:102F500041028280311106C82EC232C0EF10F02F1C
:102F600029C992450246B386C5006396D5003285CD
:102F7000C2405101828003C70500B7170140D8C382
:102F8000B7170140984B058B65DF1307F00F98CBFF
:102F900003C505002947631CE5003547D8C337172B
:102FA00001401C4B858BE5DF9307F00F1CCB85059B
:102FB0006DBF7D5575BF0000397106C016C21AC4B9
:102FC0001EC62AC82ECA32CC36CE3AD03ED273257F
:102FD0002034F32510343528731015348240924282
:102FE0002243B2434245D2456246F24602579257C7
:102FF00021617300203001A08280828082808280E3
:1030000082808280828082808280828082808280B0
:103010008280511122C206C426C02E846354050842
:1030200006050581AD476315F506B70701E083A4E2
:10303000473039479387F4FF636CF7001727000088
:10304000130747088A07BA979C43BA9782874D3F70
:10305000B70701E023A297302285A24012448244A0
:1030600031018280793FEDB7713FDDB7693FCDB760
:10307000EFE06FA0F1BF493FE1BF413FD1BF7937DA
:10308000C1BF7137F1B76937E1B7EFE00FBBC9B71F
:103090008D476314F5008D37C1B79D476319F5005F
:1030A000A93F5DBFF9476314F500913F75B7B93784
:1030B00001A0B71700409C43858B99C78967938708
:1030C00007F423A0F1C08280B7270140938707C08F
:1030D0009C531147F18B6397E700B7470F00938725
:1030E0000724C5B721476397E700B7871E0093877A
:1030F0000748C1BF31476397E700B7173D00938783
:103100000790C1B751476387E700B7177A009387E5
:10311000072045BFB727F400938707405DB73717EF
:1031200000401C47130181FD22D0056406D226CE43
:10313000C18F19661CC71306A6A5B7270140A9664B
:1031400023AEC7C29386565A23AED7C283A507C201
:10315000B704000193E5250023A0B7C283A507C2E9
:1031600023AEC7C223AED7C28D9993E5050123A034
:10317000B7C21C43B78580FF50C39385E50F54C386
:10318000ED8F1CC33D37854513058040E1299167CC
:1031900028003EC402C602C802CA26CC5528A16730
:1031A00028003EC402C602C802CA26CC55203715E4
:1031B0000140EF00307D930700102310F100F1670C
:1031C000938707208A85371501403EC2EF00107FA4
:1031D00097070000938787DE73905730F3670430BA
:1031E000130404807324443092500254F2441301B7
:1031F0008102828005476371A70251111306E035F1
:10320000972500009385C5EF17250000130505F1EC
:1032100006C4EFF05FD101A0B7270140938707C034
:103220009C536313E50221675D8F9966B7270140C0
:103230009386A6A523AED7C2A9669386565A23AE17
:10324000D7C223A0E7C2828061777D177D8FF1BF4F
:103250001C4137F70F0041111307070F06C622C4A0
:1032600026C27D8F19C73717F0FF1307F7F07D8F40
:1032700011CF1306C00297250000938525ED172571
:1032800000001305A5E9EFF01FCA01A04041054762
:10329000637F87001306D00297250000938505EB16
:1032A00017250000130585E7EFF0FFC701A0832372
:1032B0008500637F77001306E00297250000938561
:1032C000E5E817250000130565E5EFF0DFC501A06F
:1032D000544536C0637FD7001306F00297250000DF
:1032E0009385C5E617250000130545E3EFF0BFC33E
:1032F00001A083460501637FD700130600039725CD
:1033000000009385A5E417250000130525E1EFF0E3
:103310009FC101A003461501637FC7001306100378
:1033200097250000938585E217250000130505DF2A
:10333000EFF07FBF01A083462501637FD70013060E
:10334000200397250000938565E0172500001305ED
:10335000E5DCEFF05FBD01A0834235018D4663FFE0
:1033600056001306300397250000938525DE1725A8
:1033700000001305A5DAEFF01FBB01A0B72601403E
:1033800093860640631AE600D84AD98FDCCAB24059
:103390002244924441018280D04A13C7F7FF8145FD
:1033A000798ED0CA8546B396B600FD8E85C6372382
:1033B00001403D4613030340939615006364B60C29
:1033C0008324C3010D463316D6001346F6FFF18C55
:1033D000232E93008505D146E396D5FC639C02001D
:1033E000B7260140054693860640631AC40AD042B8
:1033F0005D8ED0C201468546B396C600FD8E8DC255
:10340000B72501403D439385054093161600636B35
:10341000C30803A3C501B396D200B3E66600D4CDBA
:103420000506D146E319D6FCB7260140054693862A
:1034300006406392C30890465D8E824590C6B726CB
:103440000140054693860640639AC506D0465D8EC8
:10345000D0C683450501B726014005469386064040
:103460006391C506904A5D8E90CA83452501B726B3
:1034700001400546938606406398C504984ED98F4F
:103480009CCE31B783240302138606FE8D46B39685
:10349000C60093C6F6FFF58C2320930225BFD042C9
:1034A000798E81BF03A305028116B396D200B3E6DD
:1034B000660094D1B5B79046798E41B7D046798EE3
:1034C00041BF904A798E4DB79C4E7D8F98CEC1B545
:1034D000B7F70F009387070FE98F99C7B717F0FF6A
:1034E0009387F7F0E98F85C351111306801697254E
:1034F00000009385A5C517250000130525C206C445
:10350000EFF07FA201A0B727014003A7C743498F6F
:1035100023AEE7428280B7F70F009387070FE98F4A
:1035200099C7B717F0FF9387F7F0E98F85C351115B
:103530001306701797250000938545C117250000D5
:103540001305C5BD06C4EFF01F9E01A0B7270140BB
:1035500003A7C7431345F5FF798D23AEA7428280A9
:10356000511106C49377D50F91CF1306800A972582
:103570000000938565BF17250000130525BAEFF0FD
:103580009F9A01A0FD151397050141839307F00F42
:1035900063FFE7001306900A972500009385C5BCDA
:1035A00017250000130585B7EFF0FF9701A0B717A7
:1035B00000409C4F11E993F707F0A240DD8DB7174B
:1035C00000408CCF3101828041771307F70FF98FCC
:1035D000A205E5B7B71700409C43858B8DCB896763
:1035E000938707F41CC1B71600409C421841A18381
:1035F00093F7F70785073357F70258C19C42C183F9
:1036000093F7F7078507B357F7021CC58280B727E2
:103610000140938707C09C531147F18B6397E700E4
:10362000B7470F009387072475BF21476397E700CB
:10363000B7871E009387074875B731476397E70040
:10364000B7173D009387079071BF51476387E70025
:10365000B7177A009387072071B7B727F4009387CD
:10366000074049B7B7E7290051119387D7CF06C460
:10367000E98F99C7B727D6FF93872730E98F91CF76
:103680001306C01497250000938505AE172500008A
:103690001305C5A8EFF03F8901A0854763FFB70078
:1036A0001306D01497250000938505AC172500005C
:1036B0001305C5A6EFF03F8701A0639AF500371701
:1036C00000401C475D8D08C7A24031018280B717BA
:1036D000004098471345F5FF798D88C7F5B7937774
:1036E000F53F81C7937705C085C351111306E016D6
:1036F00097250000938545A717250000130505A20F
:1037000006C4EFF05F8201A01967B71700401307E6
:10371000A7A5D8C329671307575AD8C3C8C782803B
:10372000511106C4B70701406302F502D107630FC8
:10373000F50013064005972500009385A5A41725DD
:1037400000001305A59DEFF00FFE01A003C7450083
:10375000854763FFE7001306500597250000938512
:1037600065A2172500001305659BEFF0CFFB01A0B4
:10377000B70701406315F5028327050A11EFBD9BCA
:103780002320F50A9C41A24013970701418318C1E9
:10379000C1835CC13101828093E70701D5B793866D
:1037A0004701E311D5FE01EB03A7070A1377F7FDE5
:1037B00023A0E70AC1BF03A7070A13670702CDBF0B
:1037C000511106C4B70701406302F502D107630F28
:1037D000F5001306B011972500009385A59A1725CB
:1037E00000001305A593EFF00FF401A0854763FFD8
:1037F000B7001306C011972500009385A5981725DB
:1038000000001305A591EFF00FF201A0639AF502F5
:10381000B7070140631BF5008327050A93E71700EC
:103820002320F50AA2403101828013874701E31B60
:10383000E5FE03A7070A1367270023A0E70ADDB701
:10384000B70701406316F5008327050AF99BC9BF36
:1038500013874701E318E5FC03A7070A759BF1BF2F
:10386000130500106FF0BFE7130181FD06D222D0CF
:1038700026CE83440500854763FF97001306700337
:1038800097250000938505921725000013050589EB
:10389000EFF06FE901A00344150063FF87001306F2
:1038A0008003972500009385E58F172500001305F9
:1038B000E586EFF04FE701A08343250063FF770023
:1038C00013069003972500009385C58D17250000EA
:1038D0001305C584EFF02FE501A083423500BD47F5
:1038E00063FF57001306A003972500009385858B7F
:1038F0001725000013058582EFF0EFE201A0835544
:1039000045009307F01F63FFB7001306B003972528
:103910000000938525891725000013052580EFF009
:103920008FE001A08356650063FFD7001306C00334
:103930009725000093850587171500001305057E60
:10394000EFF06FDE01A0035785001306F07F3AC049
:10395000637FE6001306D0039725000093858584D6
:10396000171500001305857BEFF0EFDB01A003576F
:10397000A500637FE6001306E0039725000093850A
:1039800065821715000013056579EFF0CFD901A006
:103990000356C50032C263FFC7001306F003972524
:1039A0000000938525801715000013052577EFF09B
:1039B0008FD701A00356E50032C463FFC70013068A
:1039C0000004971500009385E57D17150000130589
:1039D000E574EFF04FD501A0835705011303F07F85
:1039E0003EC6637FF300130610049715000093850D
:1039F000657B1715000013056572EFF0CFD201A0AB
:103A0000835725013EC8637FF300130620049715F2
:103A10000000938525791715000013052570EFF038
:103A20008FD001A0835745013ECA637FF300130680
:103A30003004971500009385E576171500001305EF
:103A4000E56DEFF04FCE01A0835765013ECC637F5B
:103A5000F30013064004971500009385A57417150D
:103A600000001305A56BEFF00FCC01A003568501F4
:103A7000637FC30013065004971500009385857279
:103A80001715000013058569EFF0EFC901A08357F2
:103A9000A501637FF300130660049715000093856A
:103AA00065701715000013056567EFF0CFC701A01B
:103AB00037250140032505801363050C89E4137540
:103AC000F5F7136305041365030219E01375F3FD9D
:103AD00013630501639403001373F5FE137303FF6F
:103AE000B3E2620037230140130503802320538093
:103AF000832245003703FCFF1303F31FB3F2620078
:103B00002322550083224500A6062E07B3E6560061
:103B100054C15441AE0793F606E054C15441D58DCB
:103B20004CC10C45B706C0FF9386F67FF58D0CC5DA
:103B30000C454D8F18C5184582451377078018C569
:103B400018454D8F18C55845A24533736700232685
:103B500065005845A6054D8F58C5584592451377C1
:103B600007E058C558454D8F58C51849758F18C975
:103B700042470C492E074D8F18C91849B24592503B
:103B80001377078018C918490254F2444D8F18C999
:103B90005849758F58C962474C492E074D8F58C9EF
:103BA0005849D2451377078058C958494D8F58C98D
:103BB000584D1377078058CD584D598E50CD584DDC
:103BC000F98E54CD584DD98F5CCD1301810282807E
:103BD000511106C422C226C0834405000547637FF5
:103BE00097001306B00A971500009385A55B17157B
:103BF00000001305A552EFF00FB301A00344150018
:103C0000637F87001306C00A9715000093858559C6
:103C10001715000013058550EFF0EFB001A08345A4
:103C20002500BD4763FFB7001306D00A97150000B3
:103C300093854557171500001305454EEFF0AFAEBD
:103C400001A083433500637F77001306E00A9715D0
:103C5000000093852555171500001305254CEFF03E
:103C60008FAC01A083424500637F57001306F00A22
:103C70009715000093850553171500001305054A95
:103C8000EFF06FAA01A003435500637F670013069E
:103C9000000B971500009385E550171500001305DC
:103CA000E547EFF04FA801A0034665000D47637F8D
:103CB000C7001306100B971500009385A54E171526
:103CC00000001305A545EFF00FA601A003477500FE
:103CD00063FFE7001306200B971500009385854CC2
:103CE0001715000013058543EFF0EFA301A08346ED
:103CF000850063FFD7001306300B971500009385EE
:103D0000654A1715000013056541EFF0CFA101A02A
:103D1000B727014083A70780D5E093F7F7F993E42D
:103D2000070119E093F4F7FEC198B7270140C58D4C
:103D300023A0B78083A5478593E70501639403001B
:103D400093F7F5FE93E587006394020093F577FF00
:103D500093E745006314030093F7B5FFF19B5D8E75
:103D6000B727014023AAC78403A687851207A2406C
:103D70001376F6F023ACC78403A6878512448244E9
:103D8000518F23ACE78403A78785419B23ACE7844D
:103D900003A78785D98E23ACD78403A74785F176FF
:103DA000FD06758F23AAE7840347950083A6478500
:103DB0001607558F23AAE7843101828093F7F7FB1A
:103DC00093E70702A9BF9307F07F63F1A7025111A0
:103DD00013069011971500009385C53C1715000038
:103DE0001305C53306C4EFF00F9401A0B7270140B7
:103DF00003A787811377078023ACE78003A7878118
:103E0000598D23ACA78082809307F07F63F1A702CE
:103E1000511113069012971500009385A5381715B8
:103E200000001305A52F06C4EFF0EF8F01A0B72700
:103E3000014003A707821377078023A0E78203A727
:103E40000782598D23A0A78282809307F5FF93F7FD
:103E5000F70F2D476371F70251111306D013971511
:103E6000000093852534171500001305252B06C483
:103E7000EFF06F8B01A01D05B7270140C2050A05B1
:103E800093870780D18D3E954CC18280854763F131
:103E9000A70251111306E014971500009385853091
:103EA000171500001305852706C4EFF0CF8701A082
:103EB000B727014093870780B85701E56D9BB8D7B6
:103EC000828013674700E5BF854763F1A702511160
:103ED0001306A017971500009385C52C1715000031
:103EE0001305C52306C4EFF00F8401A03727014056
:103EF0006319F5008327078093E707402320F780A5
:103F000082808327078093F7F7BFCDBF854763F192
:103F1000A7025111130610199715000093858528E3
:103F2000171500001305851F06C4EFE0DFFF01A091
:103F3000372701406319F5008327078093E707209F
:103F40002320F78082808327078093F7F7DFCDBF98
:103F5000854763F1A70251111306801A97150000D7
:103F600093854524171500001305451B06C4EFE093
:103F70009FFB01A0372701406319F50083270780C5
:103F800093E707102320F78082808327078093F729
:103F9000F7EFCDBF05476371A70251111306F01B60
:103FA00097150000938505201715000013050517C8
:103FB00006C4EFE05FF701A0B727014093870780B1
:103FC0006317E500B85713671700B8D78280B85752
:103FD000799BE5BF05476371A70251111306601D68
:103FE000971500009385051C171500001305051390
:103FF00006C4EFE05FF301A0B72701409387078075
:104000006317E500B85713678700B8D78280B857A1
:104010005D9BE5BF511106C49377350081C7937747
:10402000C5FF91CF1306C01F971500009385851714
:10403000171500001305850EEFE0FFEE01A0054700
:10404000637FB7001306D01F971500009385851571
:10405000171500001305850CEFE0FFEC01A0B72752
:104060000140938707806398E500F857598DA24077
:10407000E8D731018280F8571345F5FF798DC5BF28
:10408000B70710006303F504930705FC93F7F7FBEC
:104090008DCF930705FFBD9B8DCB9307C5FFED9B90
:1040A0008DC79307F5FF05476371F702511113069A
:1040B000F021971500009385E50E171500001305F4
:1040C000E50506C4EFE03FE601A0B727014093876E
:1040D0000780BC5B7D8D3335A00082809307F5FFA0
:1040E00093F7F70F05476371F70251111306D023B9
:1040F000971500009385050B1715000013050502A1
:1041000006C4EFE05FE201A0B727014003A7C7861E
:10411000814693870780698F09C7BC5B7D8DB33665
:10412000A00036858280B70710009387B706E98F15
:1041300099C7B707F0FF938747F9E98F85C35111F6
:104140001306D025971500009385C50517150000A7
:104150001305C5FC06C4EFE01FDD01A0B727014031
:1041600023A8A7868280B727014023A0A786828044
:10417000B727014023A2A7868280B727014003A565
:10418000C7858280B71701406305F502938707C092
:104190006304F5025111130650039715000093852F
:1041A000250217150000130565F706C4EFE0BFD719
:1041B00001A009456FF0AFD21145EDBF111122CA20
:1041C00006CCB71701402A846303F502938707C022
:1041D000630FF5001306300597150000938545FE23
:1041E00017150000130585F3EFE0FFD301A083D777
:1041F0000500130700106387E7027D771307F77F39
:104200007D8F93060020630FD70013064005971596
:1042100000009385E5FA17150000130525F0EFE07F
:104220009FD001A0D84111EF13065005971500004B
:10423000938505F917150000130545EEEFE0BFCE95
:1042400001A01840FD769386F60B758FD98F93E702
:1042500007041CC048002EC0EFF0CFB78245B2471C
:10426000D8419A071207B3D7E702416779179386B7
:10427000F7FF637FD7001306E006971500009385CC
:1042800025F417150000130565E9EFE0DFC901A06B
:104290005CC8E240524471018280511106C4B717D4
:1042A00001406303F502938707C0630FF50013060F
:1042B000F00C971500009385A5F017150000130565
:1042C000E5E5EFE05FC601A093F7E50081C793F74E
:1042D00015FF91CF1306000D97150000938545EE4D
:1042E00017150000130585E3EFE0FFC301A0854724
:1042F00063FFC7001306100D97150000938545EC6A
:1043000017150000130585E1EFE0FFC101A0631858
:10431000F6001C41DD8DA2400CC1310182801C41A0
:1043200093C5F5FFFD8DC5BF511106C43717014078
:10433000AA876303E502130707C0630FE5001306AE
:104340005011971500009385A5E717150000130578
:10435000E5DCEFE05FBD01A021476384E502138740
:10436000E5FF1377D70F11CF1306601197150000E3
:10437000938505E517150000130545DAEFE0BFBA90
:1043800001A0984301456D8F11C7884B85816D8DC4
:104390003335A000A24031018280511106C4B71705
:1043A00001406303F502938707C0630FF50013060E
:1043B0008013971500009385A5E0171500001305DD
:1043C000E5D5EFE05FB601A093F7F50181C793F75C
:1043D00005FE91CF1306901397150000938545DED7
:1043E00017150000130585D3EFE0FFB301A0A2402D
:1043F0000CC931018280B71701406305F50293872C
:1044000007C06301F50251111306601A97150000E9
:10441000938505DB17150000130545D006C4EFE0B2
:104420009FB001A048411375F50F8280797193D236
:1044300045019397C50006D622D426D293F2F27F87
:104440002A87B183FD816389020EAA841305F07F58
:104450006382A21A8E071354D7015D8C3705800042
:10446000938712C03EC0498C9314370081470143A3
:1044700093D246011397C60093F2F27FB283318341
:10448000FD82638D02101305F07F6384A2040E0782
:104490001355D601598D37078000598D02479382F5
:1044A00012C09313360016973AC0814233C7D50025
:1044B0003A863AC2024705073AC43D476366F71891
:1044C00017170000130787D18A07BA979C433E97B6
:1044D00002873365C70002461306F67F32C06316B3
:1044E000051493E7270081438942C9B702C29307A5
:1044F000F07F37040800814412473204D20731802C
:104500007E075D8C598CA285B25022542685925428
:104510004561828036862A849E8416838947630F8C
:10452000F3108D47E304F3FC854732C26315F34073
:10453000814701448144C9B733E4A70075C036C838
:1045400032C6638D07302AC43E852EC23EC0B121DB
:104550008247924522473246C246AA82130355FF3C
:104560007544938482FF33046440B39797003354B7
:1045700087005D8CB31497001305D0C0B307554076
:1045800093D246011397C6003EC093F2F27F814753
:104590000143B2833183FD82E39702EE3365C700A6
:1045A00025C5630F07263A8532CE3ECC36CA1AC8D7
:1045B0002EC63AC4DD26930755FF3EC22247B245B8
:1045C0004243D246E2477246AA829243754533057A
:1045D0007540938382FF331777003355A600598DBA
:1045E000B31376000247B30257401387D2C03AC0D4
:1045F00081426DBD33E4E70009EC1307F07FA1476A
:1046000081443AC00943ADB593E717008143854221
:1046100071BD1307F07F3E843AC0B1470D4389BD99
:104620009147814402C00543A1B593E737003A851D
:104630008D42ADBD89472E86E315F3EE32C2930756
:10464000F07F014481444DBD41661307F6FF93D7C7
:10465000040193D20301F98CB3F3E300B386930210
:10466000B385770213D30601338792022E971A97E8
:10467000338357021AC86374B7001A9632C8C165EB
:104680001386F5FF13530501718D1AC62ACE2A83AE
:104690003375C700F18E418342051A863ACA330743
:1046A000D5003ACC3387C702324633039302B304B2
:1046B000960293560301BA94B694B387C70263F384
:1046C000E400AE9741669306F6FFB3F5D400C180CF
:1046D000BE94D2473373D300C2052E9313570401FF
:1046E0009A97758C338583023ECAB303770293563B
:1046F0000501B38782029E97B697B382E20263F305
:104700007700B292C1669385F6FF33F6B700C18396
:104710009697BE83B242F2476D8D4206B3858702FB
:104720002A96338482023305F70293D705012A942F
:104730003E943387E2026373A4003697C167FD1786
:10474000B376F4004245ED8FD245C206B697B382E8
:10475000A50033B36200A697B292B386670033B662
:10476000C2001E85B693B385C300B3B7970033B3B9
:104770006600B3E76700B3B3A30033B6C50041805A
:104780003E9433E6C300E24732949394920022971A
:10479000DD8C13D5750113149700B334900093D2B8
:1047A0007201498CB3E45400A60593177400CD8CB4
:1047B00063DC070093D714008588DD8CA2471317AC
:1047C000F401D98C05803EC082479387F73F635C34
:1047D000F00A13F7740001CF13F7F4009146630851
:1047E000D70013874400B33497002694BA84131774
:1047F000740063590700B70700FFFD177D8C8247DF
:10480000938707401307E07F6342F71213D7340002
:104810009314D4012604D98C318093F7F77FE9B93A
:1048200032853ED03ACE36CC1ACA2EC832C6B52210
:10483000AA872AC455052AC2F14393820702324649
:10484000C2455243E24672478257E3D0A3D822477B
:104850008143130587FF3315A60069B33EC42EC2FA
:104860002AC0252A13035501F1439302050202478A
:104870009245A2473246C246E3D463CE6115331453
:10488000A7008144D5B905471D8FB1E7824713853D
:10489000E741B397A400B3D4E4003315A400B337C1
:1048A000F000C98CDD8C93F774003357E40081CF9E
:1048B00093F7F40091466388D70093874400B3B41C
:1048C00097002697BE849317870063D9070485470E
:1048D0000144814415B193068003E3CBE6C4FD4651
:1048E000E3D6E6FA8556B387F64013060002B356C0
:1048F000F4006308C70082479387E7433314F4004A
:10490000C18CB3349000D58C13F77400014419CBDB
:1049100093F7F40091460147E391D7FA13149700F7
:10492000318076078D80D98C8147F9B69307F07F67
:1049300001448144D1B6A2473EC079B593D7450121
:10494000370310001307F3FF93F7F77F9306E03F59
:104950003376B700FD81014763D3F60099C13A85EC
:1049600082809306E0417D57E3CBF6FE9306304309
:104970009D8EFD453367660063CAD5009387D7BE19
:104980003317F7003355D500498FD1BF1305304198
:10499000B307F5403357F700D9B7C167637EF50217
:1049A0009307F00F1307000263ECA70097170000AE
:1049B0009387C786AA9703C507003305A74082805F
:1049C00021819717000093876785AA9703C5070081
:1049D00061473305A7408280B7070001636EF50089
:1049E00061819717000093876783AA9703C5070023
:1049F00021473305A74082804181971700009387A4
:104A0000E781AA9703C5070041473305A740828085
:104A1000511122C206C497B7EFEF9387A75E2A848D
:104A200091C7814597000000E7000000971700003C
:104A30009387C78E88431C5591C382972285EFE0E8
:104A40008F90AA95AA876385B70003C7070001E77F
:104A50003385A74082808507FDB76FE0EF8E93878F
:104A600041C0B2862E86AA85884309A0511122C270
:104A70002A842E85B285368623A801C006C4EFE0BD
:104A80006FCDFD576317F500938701C19C4391C318
:0A4A90001CC0A240124431018280D4
:104AA000E4C6FFFFE8C6FFFFECC6FFFFF2C6FFFF4C
:104AB000F8C6FFFFFEC6FFFF04C7FFFF0AC7FFFFE0
:104AC00010C7FFFF16C7FFFF1CC7FFFF22C7FFFF6E
:104AD00028C7FFFF52756E207468652053455F42FA
:104AE0005553206461746120726563656976652041
:104AF00066756E6374696F6E210A00006420257804
:104B00000A00000052756E207468652053455F42AC
:104B10005553206461746120696E76657273696FA4
:104B20006E2066756E6374696F6E210A0000000066
:104B300052756E20746865205357414E5F4255533D
:104B4000206461746120726563656976696E6720AF
:104B500066756E6374696F6E210A000052756E206F
:104B6000746865205357414E5F4255532064617409
:104B7000612073656E64696E672066756E63746923
:104B80006F6E210A0000000052756E207468652067
:104B90005357414E5F42555320696E74657272756A
:104BA00070742066756E6374696F6E210A00000070
:104BB00052756E207468652053455F4255532068D6
:104BC00061726477617265206465636F64696E67A2
:104BD0002066756E6374696F6E210A0052756E20CF
:104BE00074686520526563656976652064617461E7
:104BF000206469676974616C2066696C74657269A8
:104C00006E672066756E6374696F6E210A0000001E
:104C100052756E2074686520537061636520636F00
:104C200064652068696768206C6576656C20484F0C
:104C30004C442066756E6374696F6E210A00000033
:104C400052756E20746865204461746120726563DA
:104C5000656976696E6720686967682D6C65766539
:104C60006C20484F4C442066756E6374696F6E21EA
:104C70000A00000052756E20746865205345425545
:104C80005320446174612053656E64696E672046E9
:104C9000756E6374696F6E210A00000052756E2094
:104CA0007468652053455F42555320696E74657280
:104CB000727570742066756E6374696F6E210A0078
:104CC00052756E207468652053455F4255532073BA
:104CD0006F6674776172652072657475726E206399
:104CE0006F64652066756E6374696F6E210A0000DB
:104CF00052756E207468652053455F42555320738A
:104D00006F667477617265206465636F64696E674E
:104D10002066756E6374696F6E210A000A63686F9E
:104D20006F7365205278476C6974636846696C7468
:104D30004366673A0A0000000A63686F6F73652074
:104D40005448525F54585F4741505F5354413A0AA8
:104D50000000000066696C745F7265673A20256424
:104D60002C207374615F7265673A2025640A000025
:104D700070687830326220747763207465737421B0
:104D800021210D0A000000000A3D3D3D3D3D3D3D15
:104D90003D3D3D3D3D3D3D3D3D3D3D3D3D3D3D3D43
:104DA0003D3D3D3D3D3D3D3D3D3D3D3D3D3D3D3D33
:104DB0003D3D3D3D3D3D3D3D3D3D3D3D3D3D3D3D23
:104DC0003D3D3D3D3D3D3D3D3D3D3D3D3D3D3D3D13
:104DD0003D0A0000506C6561736520656E746572F4
:104DE00020746865206974656D20746F2062652089
:104DF0007465737465643A0A0000000053455F42AD
:104E00005553206461746120726563656976696ECB
:104E1000672066756E6374696F6E202020202020E5
:104E2000202020202830290A0000000053455F423E
:104E30005553206461746120696E76657273696F81
:104E40006E2066756E6374696F6E202020202020AE
:104E5000202020202831290A0000000053455F420D
:104E60005553206861726477617265206465636F71
:104E700064696E672066756E6374696F6E202020AA
:104E8000202020202832290A000000005265636596
:104E90006976652064617461206469676974616C16
:104EA0002066696C746572696E672066756E6374DE
:104EB000696F6E202833290A000000005370616377
:104EC0006520636F64652068696768206C65766536
:104ED0006C20484F4C442066756E6374696F6E2079
:104EE000202020202834290A000000004461746139
:104EF00020726563656976696E6720686967682DE9
:104F00006C6576656C20484F4C442066756E637402
:104F1000696F6E202835290A00000000534542556C
:104F20005320446174612053656E64696E67204646
:104F3000756E6374696F6E20202020202020202051
:104F4000202020202836290A0000000053455F4217
:104F5000555320696E746572727570742066756E33
:104F60006374696F6E2020202020202020202020C4
:104F7000202020202837290A0000000053455F42E6
:104F8000555320736F66747761726520726574750E
:104F9000726E20636F64652066756E6374696F6EF0
:104FA000202020202838290A0000000053455F42B5
:104FB000555320736F667477617265206465636F03
:104FC00064696E672066756E6374696F6E20202059
:104FD000202020202839290A000000005357414E84
:104FE0005F42555320646174612072656365697620
:104FF000696E672066756E6374696F6E202020206D
:1050000020202020283130290A0000005357414E2B
:105010005F42555320646174612053656E64696E0C
:10502000672066756E6374696F6E202020202020D3
:1050300020202020283131290A0000005357414EFA
:105040005F42555320696E74657272757074206684
:10505000756E6374696F6E20202020202020202030
:1050600020202020283132290A000000546865726F
:1050700065206973206E6F20737563682074657393
:1050800074206974656D2025642C20706C656173D3
:105090006520656E7465722074686520636F727236
:1050A0006563742074657374206974656D210A00EA
:1050B0000000000000002440286E756C6C29000080
:1050C0008EDFFFFFA4DFFFFFA8DFFFFFACDFFFFFE6
:1050D00090DFFFFF90DFFFFFB0DFFFFFB6DFFFFFD6
:1050E000BADFFFFFBEDFFFFFC2DFFFFFC6DFFFFF4C
:1050F00090DFFFFF90DFFFFFCADFFFFF2E2E2F465E
:1051000044563332533330322F647269766572738A
:105110002F616E61632E630057726F6E672070613E
:1051200072616D65746572732076616C75653A2085
:1051300066696C653A25732C6F6E206C696E653AF2
:1051400025640D0A000000002E2E2F4644563332EF
:10515000533330322F647269766572732F696F6DC5
:105160002E6300002E2E2F464456333253333032F6
:105170002F647269766572732F737973632E63007F
:105180002E2E2F4644563332533330322F647269F9
:10519000766572732F74696D65722E63000000006E
:1051A0002E2E2F4644563332533330322F647269D9
:1051B000766572732F7477632E6300002E2E2F4650
:1051C00044563332533330322F64726976657273CA
:1051D0002F756172742E630070F4FFFF3EF3FFFFC2
:1051E0003EF3FFFF3CF3FFFF44F3FFFF44F3FFFFF9
:1051F00014F3FFFF3CF3FFFF44F3FFFF14F3FFFF43
:1052000044F3FFFF3CF3FFFF5CF4FFFF5CF4FFFFA0
:105210005CF4FFFF14F3FFFF00010202030303032A
:105220000404040404040404050505050505050536
:105230000505050505050505060606060606060616
:1052400006060606060606060606060606060606FE
:1052500006060606060606060707070707070707E6
:1052600007070707070707070707070707070707CE
:1052700007070707070707070707070707070707BE
:1052800007070707070707070707070707070707AE
:105290000707070707070707080808080808080896
:1052A000080808080808080808080808080808087E
:1052B000080808080808080808080808080808086E
:1052C000080808080808080808080808080808085E
:1052D000080808080808080808080808080808084E
:1052E000080808080808080808080808080808083E
:1052F000080808080808080808080808080808082E
:10530000080808080808080808080808080808081D
:08531000080808080808080855
:045318000000002071
:10531C000000000000000000000000000000000081
:10532C000000000000000000000000000000000071
:10533C000000000000000000000000000000000061
:10534C000000000000000000000000000000000051
:10535C000000000000000000000000000000000041
:10536C000000000000000000000000000000000031
:08537C0000127A00000000207D
:0400000510101000C7
:00000001FF
